{
  "contractName": "RWD",
  "abi": [
    {
      "inputs": [],
      "stateMutability": "nonpayable",
      "type": "constructor"
    },
    {
      "anonymous": false,
      "inputs": [
        {
          "indexed": true,
          "internalType": "address",
          "name": "_owner",
          "type": "address"
        },
        {
          "indexed": true,
          "internalType": "address",
          "name": "_spender",
          "type": "address"
        },
        {
          "indexed": false,
          "internalType": "uint256",
          "name": "_value",
          "type": "uint256"
        }
      ],
      "name": "Approval",
      "type": "event"
    },
    {
      "anonymous": false,
      "inputs": [
        {
          "indexed": true,
          "internalType": "address",
          "name": "_from",
          "type": "address"
        },
        {
          "indexed": true,
          "internalType": "address",
          "name": "_to",
          "type": "address"
        },
        {
          "indexed": false,
          "internalType": "uint256",
          "name": "_value",
          "type": "uint256"
        }
      ],
      "name": "Transfer",
      "type": "event"
    },
    {
      "inputs": [
        {
          "internalType": "address",
          "name": "",
          "type": "address"
        },
        {
          "internalType": "address",
          "name": "",
          "type": "address"
        }
      ],
      "name": "allowance",
      "outputs": [
        {
          "internalType": "uint256",
          "name": "",
          "type": "uint256"
        }
      ],
      "stateMutability": "view",
      "type": "function"
    },
    {
      "inputs": [
        {
          "internalType": "address",
          "name": "",
          "type": "address"
        }
      ],
      "name": "balanceOf",
      "outputs": [
        {
          "internalType": "uint256",
          "name": "",
          "type": "uint256"
        }
      ],
      "stateMutability": "view",
      "type": "function"
    },
    {
      "inputs": [],
      "name": "decimals",
      "outputs": [
        {
          "internalType": "uint8",
          "name": "",
          "type": "uint8"
        }
      ],
      "stateMutability": "view",
      "type": "function"
    },
    {
      "inputs": [],
      "name": "name",
      "outputs": [
        {
          "internalType": "string",
          "name": "",
          "type": "string"
        }
      ],
      "stateMutability": "view",
      "type": "function"
    },
    {
      "inputs": [],
      "name": "symbol",
      "outputs": [
        {
          "internalType": "string",
          "name": "",
          "type": "string"
        }
      ],
      "stateMutability": "view",
      "type": "function"
    },
    {
      "inputs": [],
      "name": "totalSupply",
      "outputs": [
        {
          "internalType": "uint256",
          "name": "",
          "type": "uint256"
        }
      ],
      "stateMutability": "view",
      "type": "function"
    },
    {
      "inputs": [
        {
          "internalType": "address",
          "name": "_spender",
          "type": "address"
        },
        {
          "internalType": "uint256",
          "name": "_value",
          "type": "uint256"
        }
      ],
      "name": "approve",
      "outputs": [
        {
          "internalType": "bool",
          "name": "success",
          "type": "bool"
        }
      ],
      "stateMutability": "nonpayable",
      "type": "function"
    },
    {
      "inputs": [
        {
          "internalType": "address",
          "name": "_to",
          "type": "address"
        },
        {
          "internalType": "uint256",
          "name": "_value",
          "type": "uint256"
        }
      ],
      "name": "transfer",
      "outputs": [
        {
          "internalType": "bool",
          "name": "success",
          "type": "bool"
        }
      ],
      "stateMutability": "nonpayable",
      "type": "function"
    },
    {
      "inputs": [
        {
          "internalType": "address",
          "name": "_from",
          "type": "address"
        },
        {
          "internalType": "address",
          "name": "_to",
          "type": "address"
        },
        {
          "internalType": "uint256",
          "name": "_value",
          "type": "uint256"
        }
      ],
      "name": "transerFrom",
      "outputs": [
        {
          "internalType": "bool",
          "name": "success",
          "type": "bool"
        }
      ],
      "stateMutability": "nonpayable",
      "type": "function"
    }
  ],
  "bytecode": "0x60806040526040518060400160405280600c81526020017f52657761726420546f6b656e0000000000000000000000000000000000000000815250600090805190602001906200005192919062000122565b506040518060400160405280600381526020017f5257440000000000000000000000000000000000000000000000000000000000815250600190805190602001906200009f92919062000122565b50670de0b6b3a76400006002556012600360006101000a81548160ff021916908360ff160217905550348015620000d557600080fd5b50600254600460003373ffffffffffffffffffffffffffffffffffffffff1673ffffffffffffffffffffffffffffffffffffffff1681526020019081526020016000208190555062000236565b828054620001309062000201565b90600052602060002090601f016020900481019282620001545760008555620001a0565b82601f106200016f57805160ff1916838001178555620001a0565b82800160010185558215620001a0579182015b828111156200019f57825182559160200191906001019062000182565b5b509050620001af9190620001b3565b5090565b5b80821115620001ce576000816000905550600101620001b4565b5090565b7f4e487b7100000000000000000000000000000000000000000000000000000000600052602260045260246000fd5b600060028204905060018216806200021a57607f821691505b60208210810362000230576200022f620001d2565b5b50919050565b610c8d80620002466000396000f3fe608060405234801561001057600080fd5b50600436106100935760003560e01c80635b5f8b88116100665780635b5f8b881461012257806370a082311461015257806395d89b4114610182578063a9059cbb146101a0578063dd62ed3e146101d057610093565b806306fdde0314610098578063095ea7b3146100b657806318160ddd146100e6578063313ce56714610104575b600080fd5b6100a0610200565b6040516100ad91906108ec565b60405180910390f35b6100d060048036038101906100cb91906109a7565b61028e565b6040516100dd9190610a02565b60405180910390f35b6100ee610380565b6040516100fb9190610a2c565b60405180910390f35b61010c610386565b6040516101199190610a63565b60405180910390f35b61013c60048036038101906101379190610a7e565b610399565b6040516101499190610a02565b60405180910390f35b61016c60048036038101906101679190610ad1565b61061f565b6040516101799190610a2c565b60405180910390f35b61018a610637565b60405161019791906108ec565b60405180910390f35b6101ba60048036038101906101b591906109a7565b6106c5565b6040516101c79190610a02565b60405180910390f35b6101ea60048036038101906101e59190610afe565b61082e565b6040516101f79190610a2c565b60405180910390f35b6000805461020d90610b6d565b80601f016020809104026020016040519081016040528092919081815260200182805461023990610b6d565b80156102865780601f1061025b57610100808354040283529160200191610286565b820191906000526020600020905b81548152906001019060200180831161026957829003601f168201915b505050505081565b600081600560003373ffffffffffffffffffffffffffffffffffffffff1673ffffffffffffffffffffffffffffffffffffffff16815260200190815260200160002060008573ffffffffffffffffffffffffffffffffffffffff1673ffffffffffffffffffffffffffffffffffffffff168152602001908152602001600020819055508273ffffffffffffffffffffffffffffffffffffffff163373ffffffffffffffffffffffffffffffffffffffff167f8c5be1e5ebec7d5bd14f71427d1e84f3dd0314c0f7b2291e5b200ac8c7c3b9258460405161036e9190610a2c565b60405180910390a36001905092915050565b60025481565b600360009054906101000a900460ff1681565b6000600460008573ffffffffffffffffffffffffffffffffffffffff1673ffffffffffffffffffffffffffffffffffffffff168152602001908152602001600020548211156103e757600080fd5b600560008573ffffffffffffffffffffffffffffffffffffffff1673ffffffffffffffffffffffffffffffffffffffff16815260200190815260200160002060003373ffffffffffffffffffffffffffffffffffffffff1673ffffffffffffffffffffffffffffffffffffffff1681526020019081526020016000205482111561047057600080fd5b81600460008673ffffffffffffffffffffffffffffffffffffffff1673ffffffffffffffffffffffffffffffffffffffff16815260200190815260200160002060008282546104bf9190610bcd565b9250508190555081600460008573ffffffffffffffffffffffffffffffffffffffff1673ffffffffffffffffffffffffffffffffffffffff16815260200190815260200160002060008282546105159190610c01565b9250508190555081600560008673ffffffffffffffffffffffffffffffffffffffff1673ffffffffffffffffffffffffffffffffffffffff16815260200190815260200160002060003373ffffffffffffffffffffffffffffffffffffffff1673ffffffffffffffffffffffffffffffffffffffff16815260200190815260200160002060008282546105a89190610bcd565b925050819055508273ffffffffffffffffffffffffffffffffffffffff168473ffffffffffffffffffffffffffffffffffffffff167fddf252ad1be2c89b69c2b068fc378daa952ba7f163c4a11628f55a4df523b3ef8460405161060c9190610a2c565b60405180910390a3600190509392505050565b60046020528060005260406000206000915090505481565b6001805461064490610b6d565b80601f016020809104026020016040519081016040528092919081815260200182805461067090610b6d565b80156106bd5780601f10610692576101008083540402835291602001916106bd565b820191906000526020600020905b8154815290600101906020018083116106a057829003601f168201915b505050505081565b600081600460003373ffffffffffffffffffffffffffffffffffffffff1673ffffffffffffffffffffffffffffffffffffffff16815260200190815260200160002054101561071357600080fd5b81600460003373ffffffffffffffffffffffffffffffffffffffff1673ffffffffffffffffffffffffffffffffffffffff16815260200190815260200160002060008282546107629190610bcd565b9250508190555081600460008573ffffffffffffffffffffffffffffffffffffffff1673ffffffffffffffffffffffffffffffffffffffff16815260200190815260200160002060008282546107b89190610c01565b925050819055508273ffffffffffffffffffffffffffffffffffffffff163373ffffffffffffffffffffffffffffffffffffffff167fddf252ad1be2c89b69c2b068fc378daa952ba7f163c4a11628f55a4df523b3ef8460405161081c9190610a2c565b60405180910390a36001905092915050565b6005602052816000526040600020602052806000526040600020600091509150505481565b600081519050919050565b600082825260208201905092915050565b60005b8381101561088d578082015181840152602081019050610872565b8381111561089c576000848401525b50505050565b6000601f19601f8301169050919050565b60006108be82610853565b6108c8818561085e565b93506108d881856020860161086f565b6108e1816108a2565b840191505092915050565b6000602082019050818103600083015261090681846108b3565b905092915050565b600080fd5b600073ffffffffffffffffffffffffffffffffffffffff82169050919050565b600061093e82610913565b9050919050565b61094e81610933565b811461095957600080fd5b50565b60008135905061096b81610945565b92915050565b6000819050919050565b61098481610971565b811461098f57600080fd5b50565b6000813590506109a18161097b565b92915050565b600080604083850312156109be576109bd61090e565b5b60006109cc8582860161095c565b92505060206109dd85828601610992565b9150509250929050565b60008115159050919050565b6109fc816109e7565b82525050565b6000602082019050610a1760008301846109f3565b92915050565b610a2681610971565b82525050565b6000602082019050610a416000830184610a1d565b92915050565b600060ff82169050919050565b610a5d81610a47565b82525050565b6000602082019050610a786000830184610a54565b92915050565b600080600060608486031215610a9757610a9661090e565b5b6000610aa58682870161095c565b9350506020610ab68682870161095c565b9250506040610ac786828701610992565b9150509250925092565b600060208284031215610ae757610ae661090e565b5b6000610af58482850161095c565b91505092915050565b60008060408385031215610b1557610b1461090e565b5b6000610b238582860161095c565b9250506020610b348582860161095c565b9150509250929050565b7f4e487b7100000000000000000000000000000000000000000000000000000000600052602260045260246000fd5b60006002820490506001821680610b8557607f821691505b602082108103610b9857610b97610b3e565b5b50919050565b7f4e487b7100000000000000000000000000000000000000000000000000000000600052601160045260246000fd5b6000610bd882610971565b9150610be383610971565b925082821015610bf657610bf5610b9e565b5b828203905092915050565b6000610c0c82610971565b9150610c1783610971565b9250827fffffffffffffffffffffffffffffffffffffffffffffffffffffffffffffffff03821115610c4c57610c4b610b9e565b5b82820190509291505056fea26469706673582212202c0a698478e4fca1fb7b2ed8d6611b030c602436e1d4c10df32a2117566a00a364736f6c634300080d0033",
  "immutableReferences": {},
  "source": "pragma solidity >=0.4.22 <0.9.0;\n\n// The functionality of the RWD contract is going to be identical to the tether contract\n\n\ncontract RWD {\n    string public name = \"Reward Token\";\n    string public symbol = \"RWD\";\n    uint256 public totalSupply = 1000000000000000000;\n    uint8 public decimals = 18; \n\n    event Transfer(\n        address indexed _from,\n        address indexed _to,\n        uint _value\n    );\n\n    event Approval(\n        address indexed _owner,\n        address indexed _spender,\n        uint _value\n\n    );\n\n    mapping(address => uint256) public balanceOf; // Keeping track of the balance of each person\n    mapping(address => mapping(address => uint256)) public allowance;\n\n    constructor() public {\n        balanceOf[msg.sender] = totalSupply;\n    }\n\n    function approve(address _spender, uint _value) public returns (bool success){\n        allowance[msg.sender][_spender] = _value;\n        emit Approval(msg.sender, _spender, _value);\n        return true;\n    }\n\n    //Writing out the logic for the function transfer of monies #tOkEnoMICS\n    function transfer(address _to, uint _value) public returns (bool success) {\n        // Require that the value is greater than or equal to the transfer\n        require(balanceOf[msg.sender] >= _value);\n        //Subtract Balance from initial account\n        balanceOf[msg.sender] -= _value;\n        //Add Balance to receiver \n        balanceOf[_to] += _value;\n        emit Transfer(msg.sender, _to,_value);\n        return true;\n    }\n\n    function transerFrom(address _from, address _to, uint _value) public returns (bool success) {\n        // Since this is a third party transaction we're going to need some requirements\n        require(_value <= balanceOf[_from]);\n        //The value we want to be less than or equal to the allowance of the sender\n        require(_value <= allowance[_from][msg.sender]);\n        //Add to balance \n        balanceOf[_from] -= _value;\n        // Subtract the balance for transferFrom\n        balanceOf[_to] += _value;\n        // Our allowance comes from the msg sender and the allowance called is reduced from the amount\n        allowance[_from][msg.sender] -= _value;\n\n        emit Transfer(_from, _to, _value);\n\n        return true;\n\n    }\n}",
  "sourcePath": "/Users/16036diego/Desktop/Desktop/DApp Udemy Course/defi-staking-app-starter/defi-staking-app-starter/contracts/RWD.sol",
  "compiler": {
    "name": "solc",
    "version": "0.8.13+commit.abaa5c0e.Emscripten.clang"
  },
  "schemaVersion": "3.4.6",
  "updatedAt": "2022-04-06T11:51:05.507Z",
  "devdoc": {
    "kind": "dev",
    "methods": {},
    "version": 1
  },
  "userdoc": {
    "kind": "user",
    "methods": {},
    "version": 1
  }
}