{
  "contractName": "Tether",
  "abi": [
    {
      "inputs": [],
      "name": "decimals",
      "outputs": [
        {
          "internalType": "uint8",
          "name": "",
          "type": "uint8"
        }
      ],
      "stateMutability": "view",
      "type": "function",
      "constant": true
    },
    {
      "inputs": [],
      "name": "name",
      "outputs": [
        {
          "internalType": "string",
          "name": "",
          "type": "string"
        }
      ],
      "stateMutability": "view",
      "type": "function",
      "constant": true
    },
    {
      "inputs": [],
      "name": "symbol",
      "outputs": [
        {
          "internalType": "string",
          "name": "",
          "type": "string"
        }
      ],
      "stateMutability": "view",
      "type": "function",
      "constant": true
    },
    {
      "inputs": [],
      "name": "totalSupply",
      "outputs": [
        {
          "internalType": "uint256",
          "name": "",
          "type": "uint256"
        }
      ],
      "stateMutability": "view",
      "type": "function",
      "constant": true
    }
  ],
  "bytecode": "0x60806040526040518060400160405280601081526020017f4d6f636b2054657468657220436f696e000000000000000000000000000000008152506000908051906020019061004f9291906100d6565b506040518060400160405280600481526020017f55534454000000000000000000000000000000000000000000000000000000008152506001908051906020019061009b9291906100d6565b50670de0b6b3a76400006002556012600360006101000a81548160ff021916908360ff1602179055503480156100d057600080fd5b506101d9565b8280546100e2906101a8565b90600052602060002090601f016020900481019282610104576000855561014b565b82601f1061011d57805160ff191683800117855561014b565b8280016001018555821561014b579182015b8281111561014a57825182559160200191906001019061012f565b5b509050610158919061015c565b5090565b5b8082111561017557600081600090555060010161015d565b5090565b7f4e487b7100000000000000000000000000000000000000000000000000000000600052602260045260246000fd5b600060028204905060018216806101c057607f821691505b6020821081036101d3576101d2610179565b5b50919050565b6103ba806101e86000396000f3fe608060405234801561001057600080fd5b506004361061004c5760003560e01c806306fdde031461005157806318160ddd1461006f578063313ce5671461008d57806395d89b41146100ab575b600080fd5b6100596100c9565b6040516100669190610297565b60405180910390f35b610077610157565b60405161008491906102d2565b60405180910390f35b61009561015d565b6040516100a29190610309565b60405180910390f35b6100b3610170565b6040516100c09190610297565b60405180910390f35b600080546100d690610353565b80601f016020809104026020016040519081016040528092919081815260200182805461010290610353565b801561014f5780601f106101245761010080835404028352916020019161014f565b820191906000526020600020905b81548152906001019060200180831161013257829003601f168201915b505050505081565b60025481565b600360009054906101000a900460ff1681565b6001805461017d90610353565b80601f01602080910402602001604051908101604052809291908181526020018280546101a990610353565b80156101f65780601f106101cb576101008083540402835291602001916101f6565b820191906000526020600020905b8154815290600101906020018083116101d957829003601f168201915b505050505081565b600081519050919050565b600082825260208201905092915050565b60005b8381101561023857808201518184015260208101905061021d565b83811115610247576000848401525b50505050565b6000601f19601f8301169050919050565b6000610269826101fe565b6102738185610209565b935061028381856020860161021a565b61028c8161024d565b840191505092915050565b600060208201905081810360008301526102b1818461025e565b905092915050565b6000819050919050565b6102cc816102b9565b82525050565b60006020820190506102e760008301846102c3565b92915050565b600060ff82169050919050565b610303816102ed565b82525050565b600060208201905061031e60008301846102fa565b92915050565b7f4e487b7100000000000000000000000000000000000000000000000000000000600052602260045260246000fd5b6000600282049050600182168061036b57607f821691505b60208210810361037e5761037d610324565b5b5091905056fea26469706673582212208352e6fb6bf3e6c395eb90406394e056904f02390fb4ab69889cd6336b007f4e64736f6c634300080d0033",
  "immutableReferences": {},
  "source": "pragma solidity >=0.4.22 <0.9.0;\n\n\ncontract Tether {\n    string public name = \"Mock Tether Coin\";\n    string public symbol = \"USDT\";\n    uint256 public totalSupply = 1000000000000000000;\n    uint8 public decimals = 18; \n}",
  "sourcePath": "/Users/16036diego/Desktop/Desktop/DApp Udemy Course/defi-staking-app-starter/defi-staking-app-starter/contracts/Tether.sol",
  "compiler": {
    "name": "solc",
    "version": "0.8.13+commit.abaa5c0e.Emscripten.clang"
  },
  "schemaVersion": "3.4.6",
  "updatedAt": "2022-04-04T20:36:28.764Z",
  "networkType": "ethereum",
  "devdoc": {
    "kind": "dev",
    "methods": {},
    "version": 1
  },
  "userdoc": {
    "kind": "user",
    "methods": {},
    "version": 1
  }
}